:020000040000FA
:0400000080312D28F6
:100008007E1480318B190B1C0D288031E52080313E
:100018002B280B1F2B282100111F19282000111F26
:1000280019288131892180312B282100911D23280D
:100038002000911D23288131192180312B2821008E
:10004800911C2B282000911C2B288031D3207E1056
:10005800090080312F2881318E21FB00F001F10148
:10006800F201F301F4017E10200080313B28803139
:10007800C12080318B170B1722008C110B30200008
:10008800A9002630A8005D30890B4828A80B48280D
:10009800A90B4828003222008C150B302000A9003B
:1000A8002630A8005D30890B5728A80B5728A90BC4
:1000B8005728003222008C110B302000A90026306E
:1000C800A8005D30890B6628A80B6628A90B66284E
:1000D800003222008C1502302000A9000430A8004C
:1000E800BA30890B7528A80B7528A90B752800004C
:1000F80000000000000000000000031020008D1E1A
:100108000314031C8A2822000C176F2822000C13E2
:100118006F2822008C018D01303021008C00FB30CB
:100128008D0023008D0110308C0024008D018C017E
:100138002100951722009D019E0127001610961197
:100148009612151495159516141494159416933043
:10015800F7000130F80081317A2180319230F700C0
:100168000130F8008131742180319130F70001307D
:10017800F80081316E218B15080080318D20803187
:10018800813161218031813185218031813108219E
:1001980080318031F72080318131582108002000DA
:1001A80091100130F0070030F13D003071026430E9
:1001B80003197002031C080081314E21F001F1017E
:1001C80008002700161CEB288131412180312700C7
:1001D800961DF1288131342180312700961E0800B0
:1001E8008131272108007C3020009B009A01911062
:1001F800210091149030F7000130F80081318021FE
:10020800273020009C00080040302400940024304F
:1002180095009701FF3091008C30F7000130F8000D
:100228008131682121009115080024001108F60089
:100238007608F500200027088A0026080A00813180
:100248002400910008002000200821040319312906
:1002580021088A0020080A00813127009612080028
:1002680020002208230403193E2923088A002208B3
:100278000A0081312700961108002000240825046F
:1002880003194B2925088A0024080A008131270010
:100298001610080079087A04031908007A088A00F9
:1002A80079080A0081310800013021009D00603082
:1002B8009E009B019C0111170800783021009900CD
:1002C800980122009601080078082000A700770806
:1002D800A600080078082000A1007708A000080000
:1002E80078082000A3007708A200080078082000FA
:1002F800A5007708A40008007808FA007708F90034
:10030800080016302100970008002000111308008B
:10031800750808000234B434080008000800080012
:020000040001F9
:04000E00E4FFFFFE0E
:00000001FF
