:020000040000FA
:040000008031232800
:100008007E1480318B190B1C0D2883315A238031C3
:1000180021280B1F21282100111F19282000111F3A
:10002800192883317123803121282100911C21282E
:100038002000911C21288231BF227E1009008031C6
:10004800252883317E238031C80083317F23803186
:10005800C90083318023CA00BE01BF01C001C101AC
:10006800C201C3017E1020008131522920002008DE
:10007800A6002108A7002208A8000310270D280DB4
:10008800A9002908AA002A08031D51280030A00049
:100098000030A1000030A20008002308A6002408B0
:1000A800A7002508A8000310270D280DA900290876
:1000B800AF002F08031D67280030A0000030A10002
:1000C8000030A20008002F087B3EA6002608AA07D9
:1000D8002008A6002108A7002208A8001030A8368A
:1000E800A70CA60C890B73282608A9002908AF00BD
:1000F8002308A6002408A7002508A8001030A83661
:10010800A70CA60C890B83282608A9002908AF0686
:100118008030A6002608AF05A117A417FF30A30555
:10012800FF30A4050030A5050030AB000030AC005E
:100138000030AD000730A6002608AE00201CAA2813
:100148002308AB072408AC3D2508AD3D0130A23695
:10015800A10CA00C890BAB280130A335A40DA50D6B
:10016800890BB1280130AE02031DA2280930A60070
:100178002608AE00201CC6282308AB072408AC3D7F
:100188002508AD3D0130A236A10CA00C890BC7286B
:100198000130AD36AC0CAB0C890BCD280130AE026A
:1001A800031DBE282B08F0002C08F1002D08F200D2
:1001B8002A08A6002608F3002F08A7002708F4003D
:1001C8008031EE2070082000A0007108A10072089C
:1001D800A200080073080319F62872087104700455
:1001E800031D07290030F0000030F1000030F20054
:1001F80008000130F5007508F3070130F236F10CFC
:10020800F00C890B0229FE30720503192029FD28FC
:100218000130F5007508F3070130F00700300318C6
:100228000130F107003003180130F2070130F236CF
:10023800F10CF00C890B1B29FF30720503193129C9
:100248000C2902307302031C33290130F3020130F8
:10025800F035F10DF20D890B2C29F11F25297318A2
:100268003B29FF30F0057F30F105FF30F205031020
:10027800F30C7308F500F601F7011030F535F60DAB
:10028800F70D890B42297508F0047608F104770800
:10029800F204740803190800F21708008231E522F5
:1002A80081318B170B1722008D1000302000B80009
:1002B8000030B7000130B600F430B5008231712249
:1002C800813122008D1400302000B8000030B700C2
:1002D8000130B600F430B50082317122813122003C
:1002E8008D1000302000B8000030B7000130B60093
:1002F800F430B50082317122813122008D14003032
:100308002000B8000030B7000030B6000530B50056
:1003180082317122813101302000B5000230B600EF
:10032800833154238131833181238131003020008E
:10033800B8000030B7000330B600E830B5008231AD
:100348007122813122000D148D1463000000000019
:100358000000972983316623813171082000B1009C
:100368007008B0001230A0008330A1003B30A2001A
:100378003108F9003008F8008231D222813178083A
:100388002000A3007908A4007A08A50080313A204B
:10039800813120002008B2002108B3002208B400EF
:1003A80022000D148D1420003208F0003308F100EB
:1003B8003408F2000030F3008030F4004030F500DB
:1003C800823144228131031CEC2922008D1008005F
:1003D8009A30F0005930F1004030F2002000320825
:1003E800F3003308F4003408F500823144228131E7
:1003F800031C080022000D10080020000C08013919
:10040800F000F101F035F10DF035F10DF035F10D99
:100418000C0D0C0D0139F200F301F235F30DF23534
:10042800F30D0C0E890C890C0139F400F501F43533
:10043800F50D0C0C01397407F60075080318750AD8
:10044800F70072087607F8007308773DF90070081E
:100458007807FA007108793DFB007A08FC007B08F0
:10046800FD00FC1D3A2A8331602308007C1D3F2AC9
:1004780083316C2308007C1C080083313D2308006D
:10048800F21F532A7008003CF0007108031C710F1A
:10049800003CF1007208031C720F803CF200F51F4B
:1004A800622A7308003CF3007408031C740F003CB4
:1004B800F4007508031C750F803CF5008030F206C7
:1004C8008030F50675087202031D08007408710271
:1004D800031D080073087002080000302000BD00EA
:1004E8000030BC000030BB000030BA003D08803A44
:1004F800B9003808803A3902031D8C2A37083C02B3
:10050800031D8C2A36083B02031D8C2A35083A0243
:10051800031808005330890B8F2A0000013020008F
:10052800BA070030BB3D0030BC3D0030BD3D7A2AE3
:100538000C3022008C0003308D00F33021008C0039
:10054800E4308D00063023008D008C0124008D01DD
:100558008C012100951722009D019E01270096120B
:100568009516941686302000B5000330B600833106
:1005780054238B150800200091100130BE0700306D
:10058800BF3D00303F020A3003193E02031C080039
:10059800833132232000BE01BF0108007808F00033
:1005A8007908F100F2018E30FB007B08F300F401BA
:1005B8008031EE207008F8007108F9007208FA001E
:1005C800080082319C228231833147238231833172
:1005D800762382318231F722823183317A23823144
:1005E800833126230800073020009B009A019110D0
:1005F8002100911485302000B5000330B600833106
:100608004E23233020009C0008002000B600360846
:10061800B500B50DB50D21001D082000350683393C
:10062800350621009D001D140800200044084504DB
:100638000319232B45088A0044080A008331270040
:1006480096120800013021009D00E3309E009B01B6
:100658009C0111170A30833109230800200046083D
:1006680047040319080047088A0046080A0083312E
:10067800080020004208031D442B83316023080032
:1006880083316C23080078302100990098012200FA
:100698009601080020003608C7003508C600080083
:1006A80020003608C5003508C40008002700961E3B
:1006B800080083311923080022008D152000C2018B
:1006C800C20A080021001C08F1001B08F0000800FD
:1006D80022008D112000C201080020001113813171
:1006E800AE21080016302100970008008230220051
:1006F8009700080009340134023421009D140800D1
:06070800B43408000800F3
:020000040001F9
:04000E00E4FFFFFE0E
:00000001FF
