:020000040000FA
:0400000080312D28F6
:100008007E1480318B190B1C0D28833163238031BA
:100018002B280B1F2B282100911D19282000911D2A
:1000280019288431832480312B282100111F23288B
:100038002000111F23288431972480312B28210088
:10004800911C2B282000911C2B2883313E237E10E5
:10005800090080312F28843194248031C6008431EE
:1000680095248031C700843196248031C8007030CF
:100078008400203085000030FE000130FF0084310C
:100088002124FD01BE01BF01C001C101C201C3019C
:10009800C401C5017E10200081311B292000B40055
:1000A80031088231A822803120003208833115239B
:1000B800803103302000B3003308AB0002308331B5
:1000C800C3238031C7302000B3003308AB000330AE
:1000D8008331C32380310C302000B3003308AB00D8
:1000E80004308331C323803102302000B300330849
:1000F800AB0005308331C3238031B8302000B30012
:100108003308AB000D308331C32380313A302000EF
:10011800B3003308AB000E308331C32380317D3008
:100128002000B3003308AB0006308331C32380318D
:1001380064302000B3003308AB0007308331C32399
:10014800803114302000B3003308AB00083083310D
:10015800C323803120302000B3003308AB000C30BB
:100168008331C323803193302000B3003308AB00C0
:1001780010308331C323803138302000B300330876
:10018800AB0011308331C323803180302000B300AD
:100198003308AB0012308331C32380312000AB0118
:1001A800AB0A19308331C323803145302000B300B6
:1001B8003308AB0018308331C32380312000AB01F2
:1001C80015308331C323803170302000B3003308E9
:1001D800AB001A308331C32380313C302000B30098
:1001E8003308AB001B308331C32380310430200037
:1001F800B3003308AB001C308331C32380312000A7
:100208003408B3003308AB001D308331C323803179
:1002180020302000B3003308AB001E308331C323E5
:1002280080312000AB011F308331C32308008231A5
:10023800E52281318B170B1722000C108C1100302E
:100248002000A6000030A5000130A400F430A3006F
:1002580082314B22813122008C1500302000A6000B
:100268000030A5000130A400F430A30082314B22F5
:10027800813122008C1100302000A6000030A5003A
:100288000130A400F430A30082314B2281312200D6
:100298008C152000B1010530B5003508B200413099
:1002A80080315220813100302000A6000030A500A6
:1002B8000030A4000530A30082314B228131D430B4
:1002C8002000A3000130A40084317D248131003056
:1002D8002000A6000030A5000030A4006430A30070
:1002E80082314B2281310000000000000000000034
:1002F8006B292000A6002400951AD2292000260880
:10030800A300A401A335A40DA335A40D55302307DC
:1003180084008430243D85000008240094002000D7
:100328002608A300A401A335A40DA335A40D5430B9
:10033800230784008430243D8500000820382400E9
:100348009500960120002608A300A401A335A40D5A
:10035800A335A40D5630230784008430243D85003E
:1003680000082400920020002608A300A401A33559
:10037800A40DA335A40D5730230784008430243DF1
:1003880085000008A500A50E21000D0820002506FF
:10039800EF39250621008D000130080000300800E3
:1003A8008231C72281318231C7228131FC007C0829
:1003B8002000A20055302206031DEE29031022005A
:1003C8008C1D0314031CEB2922008C15082A22001B
:1003D8008C11082A22008C110030F3000030F20042
:1003E8000130F100F430F00082317B2281312200AB
:1003F8008C150030F3000030F2000130F100F430C9
:10040800F00082317B228131843114248131003A19
:10041800031D122A8231C7228131082A00000800F0
:10042800013022008C008D01303021008C00EB302F
:100438008D0023008D0110308C0024008D018C016B
:100448002100951722009D019E0127001610961184
:100458009612951595161414941594169E3020002E
:10046800A3000430A40084317D2482319D30200013
:10047800A3000430A4008431772482319C3020000A
:10048800A3000430A400843171248B1508000030C7
:100498002000AB000030AA000030A9000030A800FE
:1004A8002B08803AA7002608803A2702031D662AEF
:1004B80025082A02031D662A24082902031D662A24
:1004C800230828020318080006302000A70030304F
:1004D800890B6C2AA70B6C2A000001302000A807A2
:1004E8000030A93D0030AA3D0030AB3D542A003011
:1004F800F8000030F7000030F6000030F50078080A
:10050800803AF4007308803A7402031D952A720831
:100518007702031D952A71087602031D952A700833
:100528007502031808000630F4003030890B9A2A47
:10053800F40B9A2A00320130F5070030F63D0030FE
:10054800F73D0030F83D832A2000B0003003031D3A
:10055800AF2A8030B92A3008031DB42A6030B92A7E
:1005680002303006031DBD2A2030AE002E08AF0031
:10057800BE2AAF012F081038AE002E08AB0000309D
:100588008331C323080084319024F6007608F800EC
:100598007D08703EF600F7012030F73D76088600AA
:1005A80077088700780881000130F6007608FD0793
:1005B8007D08703E860087012030873D81017808DC
:1005C80008008231142282318431642482318431DA
:1005D8008C24823183315123823184314224823107
:1005E80000308331B5238231003A031D0800220010
:1005F8008C1108002000A90022008C140C11200086
:10060800290884314B2482312000270884314B2467
:100618002000A8002808AA0022000C1520002A089B
:1006280008002000AF0004302F06031D1D2B80306A
:100638001E2B4030AE002E08B00030080C38AE003B
:100648002E08AB0001308331C32308000034003486
:1006580088340434973403340034003400340034CC
:1006680000340034003400340034003400340034E2
:1006780083340434200091100130C0070030C13D9C
:1006880000304102643003194002031C0800843121
:100698002D242000C001C10108007C3020009B00EF
:1006A8009A019110210091149B302000A30004307E
:1006B800A40084316B24273020009C000800270008
:1006C800161C692B8431072483312700961D6F2B54
:1006D8008331FA2383312700961E08008331ED23E6
:1006E8000800F60022008C140C11760884315C2472
:1006F8008331740884315C24F5007508F700220002
:100708000C15770808002000A5002535A40024084A
:10071800A60023080319952B26084038A4002408AE
:10072800A600260808007E1C9B2B8431382C20004C
:100738002308240091002000911D9F2B9111240073
:1007480011080800F2007235F1007108F300700812
:100758000319B32B73084038F1007108F3007308CC
:1007680008002000A700BD2B843188240800003031
:1007780008002708003A0319B82BBB2B08002000F3
:10078800AD002B08AC002C08A700A3012D0883316D
:10079800872383318231FE220800F40022000C15E1
:1007A8008C10740884315C24F3007308F50022006F
:1007B8008C1475080800F900FF30F8007808F40078
:1007C800F001F00A79088331A62383318331752338
:1007D80008002000360837040319F72B37088A0069
:1007E80036080A00833127009612080020003808CE
:1007F80039040319042C39088A0038080A0084319E
:1008080027009611080020003A083B040319112C10
:100818003B088A003A080A008431270016100800AD
:100828000D308331DF238431FA007A08FB00FB188E
:100838001F2C0130080000300800640080010131DD
:100848000130FE020030FF3B7F087E0403190034AC
:10085800222C20003C083D04031908003D088A00AA
:100868003C080A0084310800700824009100200028
:10087800911D3B2C91112400110808000130210022
:100888009D0060309E009B019C011117080020000C
:10089800A5002508A4002408A30083319723080095
:1008A8000A344034273400340A34403427340034BE
:1008B800F2007208F1007108F00084313824080051
:1008C8007830210099009801220096010800200044
:1008D8002408BD002308BC00080020002408B70035
:1008E8002308B600080020002408B9002308B8002F
:1008F800080020002408BB002308BA0008002000D4
:10090800911D080091110800013081317D210800F6
:10091800163021009700080000308331D1230800E9
:10092800093401340234200011130800B4340800DB
:06093800080008000800A1
:020000040001F9
:04000E00E4FFFFFE0E
:00000001FF
