:020000040000FA
:0400000080312D28F6
:100008007E1480318B190B1C0D288331E02380313D
:100018002B280B1F2B282100911D19282000911D2A
:1000280019288531152580312B282100111F2328F7
:100038002000111F23288531292580312B282100F4
:10004800911C2B282000911C2B288331BB237E1068
:10005800090080312F28853126258031C700853158
:1000680027258031C800853128258031C9007030A6
:100078008400203085000030FE000130FF0084310C
:100088009E24FD01BF01C001C101C201C301C40119
:10009800C501C6017E1020008031522883316223B9
:1000A80080318B170B1722000C108C1100302000A8
:1000B800A6000030A5000130A400F430A30082316E
:1000C800C822803122008C1500302000A6000030A4
:1000D800A5000130A400F430A3008231C822803189
:1000E80022008C1100302000A6000030A50001304D
:1000F800A400F430A3008231C822803122008C157C
:100108002000B1010530B5003508B2004130813119
:100118003121803100302000A6000030A5000030D9
:10012800A4000530A3008231C8228031513020005C
:10013800A3000230A40085310425803103308331C7
:100148002523803123008D1021008D1423000D11EB
:1001580021000D1523000D1221000D1623008D130B
:1001680021008D1723000D1321000D1720000D1EEF
:10017800D0288431B524803103302000B6000830FF
:10018800B5007730890BC628B50BC628B60BC6282C
:1001980020000D1E0E29C0280D1DE5288431B52428
:1001A800803103302000B6000830B5007730890B65
:1001B800DB28B50BDB28B60BDB2820000D1D0E292C
:1001C800D5288D1CFA288431B524803103302000CD
:1001D800B6000830B5007730890BF028B50BF02849
:1001E800B60BF02820008D1C0E29EA288D1F0E2939
:1001F8008431B524803103302000B6000830B500C2
:100208007730890B0529B50B0529B60B0529200080
:100218008D1BFF284503031D25290130B50035082E
:10022800C3078C191D294303031D252922008C159A
:10023800232909304306031D252922008C1120009B
:10024800C3010030A6000030A5000030A4006430CF
:10025800A3008231C8228031BA282000B4003108B6
:100268008331252381312000320883319223813163
:1002780003302000B3003308AB000230843140243F
:100288008131C7302000B3003308AB00033084311C
:10029800402481310C302000B3003308AB00043017
:1002A80084314024813102302000B3003308AB0090
:1002B8000530843140248131B8302000B300330840
:1002C800AB000D308431402481313A302000B30036
:1002D8003308AB000E308431402481317D3020005A
:1002E800B3003308AB0006308431402481316430D8
:1002F8002000B3003308AB0007308431402481313B
:1003080014302000B3003308AB0008308431402497
:10031800813120302000B3003308AB000C30843129
:100328004024813193302000B3003308AB001030F3
:1003380084314024813138302000B3003308AB00C9
:100348001130843140248131AA302000B3003308B1
:10035800AB0012308431402481312000AB01AB0A5C
:10036800193084314024813145302000B3003308EE
:10037800AB0018308431402481312000AB011530A6
:1003880084314024813170302000B3003308AB0041
:100398001A308431402481313C302000B3003308C6
:1003A800AB001B3084314024813104302000B3007D
:1003B8003308AB001C3084314024813120003408DC
:1003C800B3003308AB001D30843140248131203024
:1003D8002000B3003308AB001E3084314024813143
:1003E8002000AB011F308431402408002000A60003
:1003F8002400951A4F2A20002608A300A401A3353B
:10040800A40DA335A40DDC30230784008430243DDB
:10041800850000082400940020002608A300A401F9
:10042800A335A40DA335A40DDB3023078400843045
:10043800243D8500000820382400950096012000FE
:100448002608A300A401A335A40DA335A40DDD300F
:10045800230784008430243D85000008240092008E
:1004680020002608A300A401A335A40DA335A40DDC
:10047800DE30230784008430243D85000008A50071
:10048800A50E21000D0820002506EF3925062100BC
:100498008D00013008000030080083314423823188
:1004A800833144238231FC007C082000A2005530AF
:1004B8002206031D6B2A031022008C1D0314031C43
:1004C800682A22008C15852A22008C11852A220090
:1004D8008C110030F3000030F2000130F100F430EC
:1004E800F0008231F822823122008C150030F300AE
:1004F8000030F2000130F100F430F0008231F822CF
:100508008231843191248231003A031D8F2A83314C
:1005180044238231852A00000800013022008C0023
:100528008D01303021008C00EB308D0023008D01CF
:1005380010308C0024008D018C01210095172200B9
:100548009D019E0127001610961196129515951675
:1005580014149415941630302000A3000530A4001C
:100568008531042582312F302000A3000530A400F6
:100578008431FE2482312E302000A3000530A400EF
:100588008431F8248B15080000302000AB000030BF
:10059800AA000030A9000030A8002B08803AA70064
:1005A8002608803A2702031DE32A25082A02031D8C
:1005B800E32A24082902031DE32A23082802031832
:1005C800080006302000A7003030890BE92AA70B65
:1005D800E92A000001302000A8070030A93D0030BA
:1005E800AA3D0030AB3DD12A0030F8000030F700BA
:1005F8000030F6000030F5007808803AF4007308FF
:10060800803A7402031D122B72087702031D122B05
:1006180071087602031D122B700875020318080072
:100628000630F4003030890B172BF40B172B0032EF
:100638000130F5070030F63D0030F73D0030F83D59
:10064800002B2000B0003003031D2C2B8030362BEC
:100658003008031D312B6030362B02303006031D65
:100668003A2B2030AE002E08AF003B2BAF012F08ED
:100678001038AE002E08AB0000308431402408004A
:1006880085312225F6007608F8007D08703EF600D0
:10069800F7012030F73D760886007708870078084C
:1006A80081000130F6007608FD077D08703E86005F
:1006B80087012030873D8101780808008231912226
:1006C80083318431EB24833185311E258331833195
:1006D800CE2383318431C9248331003084313224DC
:1006E8008331003A031D080022008C110800200005
:1006F800A90022008C140C11200029088431D2246E
:100708008331200027088431D2242000A80028083B
:10071800AA0022000C1520002A0808002000AF00BB
:1007280004302F06031D9A2B80309B2B4030AE00DF
:100738002E08B00030082838AE002E08AB00013073
:10074800843140240800003400341A340534143449
:1007580004340034003400340034003400340034ED
:1007680000340034003400340034153405342000DB
:1007780091100130C1070030C23D003042026430A0
:1007880003194102031C08008431AA242000C10176
:10079800C20108007C3020009B009A0191102100C2
:1007A80091142D302000A3000530A4008431F224D8
:1007B800273020009C0008002700161CE62B8431F7
:1007C800842483312700961DEC2B843177248331D0
:1007D8002700961E080084316A240800F6002200CB
:1007E8008C140C1176088431E32483317408843125
:1007F800E324F5007508F70022000C1577080800B7
:100808002000A5002535A4002408A6002308031904
:10081800122C26084038A4002408A6002608080040
:100828007E1C182C8431BF2C200023082400910042
:100838002000911D1C2C9111240011080800F200C1
:100848007235F1007108F30070080319302C730831
:100858004038F1007108F300730808002000A70071
:100868003A2C85311A250800003008002708003A7C
:100878000319352C382C08002000AD002B08AC00DB
:100888002C08A700A3012D08843104248431833166
:100898007B230800F40022000C158C1074088431A6
:1008A800E324F3007308F50022008C14750808008F
:1008B800F900FF30F8007808F400F001F00A790830
:1008C8008431232484318331F2230800200037083F
:1008D80038040319742C38088A0037080A00843150
:1008E800270096120800200039083A040319812CC1
:1008F8003A088A0039080A0084312700961108004E
:1009080020003B083C0403198E2C3C088A003B0855
:100918000A0084312700161008000D3084315C2449
:100928008431FA007A08FB00FB189C2C013008007F
:10093800003008006400800101310130FE020030FF
:10094800FF3B7F087E04031900349F2C20003D08DC
:100958003E04031908003E088A003D080A00843155
:100968000800200045080319BC2C85311025080013
:1009780085310A2508007008240091002000911D87
:10098800C22C9111240011080800013021009D009B
:1009980060309E009B019C01111708002000A500F3
:1009A8002508A4002408A3008431142408000A346C
:1009B8004034273400340A34403427340034F200F9
:1009C8007208F1007108F0008431BF240800783003
:1009D80021009900980122009601080020002408AF
:1009E800BE002308BD00080020002408B800230822
:1009F800B700080020002408BA002308B90008003E
:100A080020002408BC002308BB00080022008C1723
:100A18002000C501C50A080022008C132000C5016A
:100A280008002000911D0800911108000130813153
:100A3800FA210800163021009700080000308431A0
:100A48004E24080009340134023420001113080030
:0A0A5800B43408000800080008008C
:020000040001F9
:04000E00E4FFFFFE0E
:00000001FF
