:020000040000FA
:0400000080312D28F6
:100008007E1480318B190B1C0D28833167238031B6
:100018002B280B1F2B282100911D19282000911D2A
:10002800192884313F2480312B282100111F2328CF
:100038002000111F23288431532480312B282100CC
:10004800911C2B282000911C2B28833142237E10E1
:10005800090080312F28843150248031C600843132
:1000680051248031C70084315224C800FC01FD01AD
:10007800C001C101C201C301C401C5017E10200035
:10008800813108292000B60033088231E12280310D
:100098002000340883311923803103302000B50053
:1000A8003508AD0002308331A6238031C7302000E7
:1000B800B5003508AD0003308331A62380310C30FC
:1000C8002000B5003508AD0004308331A623803107
:1000D80002302000B5003508AD0005308331A62375
:1000E8008031B8302000B5003508AD000D308331BF
:1000F800A62380312A302000B5003508AD000E3027
:100108008331A62380317D302000B5003508AD004D
:1001180006308331A623803164302000B5003508CD
:10012800AD0007308331A623803114302000B5009C
:100138003508AD0008308331A623803120302000F7
:10014800B5003508AD000C308331A62380319330DB
:100158002000B5003508AD0010308331A62380316A
:1001680038302000B5003508AD0011308331A623A2
:10017800803180302000B5003508AD001230833161
:10018800A623803155302000B5003508AD00193060
:100198008331A62380312000AD0115308331A62399
:1001A800803172302000B5003508AD001A30833137
:1001B800A62380313C302000B5003508AD001B3047
:1001C8008331A623803102302000B5003508AD0008
:1001D8001C308331A623803120003608B50035084D
:1001E800AD001D308331A623803124302000B500B6
:1001F8003508AD001E308331A62380312000AD01C3
:100208001F308331A62308008331002381318B17E7
:100218000B1722000C108C1100302000A3000030B6
:10022800A2000130A100F430A000823132228131D5
:1002380022008C1500302000A3000030A2000130FD
:10024800A100F430A00082313222813122008C11C9
:1002580000302000A3000030A2000130A100F430DB
:10026800A00082313222813122008C152000B30196
:100278000530B7003708B40041308031462081315D
:1002880000302000A3000030A2000030A10005309B
:10029800A000823132228131B8302000A000023023
:1002A800A10084313924813100302000A3000030BE
:1002B800A2000030A1006430A000823132228131D6
:1002C8000000000000000000000058292000A300E2
:1002D8002400951ABF2920002308A000A101A035F9
:1002E800A10DA035A10D1130200784008430213DD7
:1002F800850000082400940020002308A000A10124
:10030800A035A10DA035A10D103020078400843040
:10031800213D850000082038240095009601200022
:100328002308A000A101A035A10DA035A10D123010
:10033800200784008430213D8500000824009200B5
:1003480020002308A000A101A035A10DA035A10D12
:100358001330200784008430213D85000008A20066
:10036800A20E21000D0820002206EF3922062100E6
:100378008D0001300800003008002000AB0022008A
:100388008C140C1100302000A3000030A2000030B3
:10039800A1006430A00082318F22813120002B0817
:1003A80084310724813100302000A3000030A200EE
:1003B8000030A1006430A00082318F2281312000FA
:1003C80029088431072481312000AA002A08AC00BA
:1003D8000030A3000030A2000030A1006430A0006B
:1003E80082318F2222000C1520002C0808000130D1
:1003F80022008C008D01303021008C00EB308D0004
:1004080023008D0110308C0024008D018C01210007
:10041800951722009D019E0127001610961196122D
:10042800951595161414941594165A302000A000AA
:100438000430A10084313924813159302000A000D2
:100448000430A10084313324813158302000A000C9
:100458000430A10084312D248B15080000302000C1
:10046800A8000030A7000030A6000030A50028082A
:10047800803AA4002308803A2402031D4D2A22084A
:100488002702031D4D2A21082602031D4D2A200894
:1004980025020318080006302000A4003030890B1C
:1004A800532AA40B532A000001302000A50700306E
:1004B800A63D0030A73D0030A83D3B2A0030F8009B
:1004C8000030F7000030F6000030F5007808803A78
:1004D800F4007308803A7402031D7C2A72087702BC
:1004E800031D7C2A71087602031D7C2A7008750298
:1004F800031808000630F4003030890B812AF40B09
:10050800812A00320130F5070030F63D0030F73D12
:100518000030F83D6A2A00302000A8000030A7000B
:100528000030A6000030A5002808803AA40023085F
:10053800803A2402031DAA2A22082702031DAA2A98
:1005480021082602031DAA2A2008250203180800EC
:100558000032003201302000A5070030A63D0030EF
:10056800A73D0030A83D982A84314C24823184313B
:100578004C24823122008C110030F3000030F2004C
:100588000130F100F430F000823162228231220021
:100598008C150030F3000030F2000130F100F43027
:1005A800F00082316222823120008D1DDF2A8431E1
:1005B8004C248231D82A000008002000B2003203FF
:1005C800031DE82A8030F22A3208031DED2A603024
:1005D800F22A02303206031DF62A2030B000300815
:1005E800B100F72AB10131081038B0003008AD0069
:1005F80000308331A62308008131FB218331843107
:100608002024833184314824833183315523833135
:100618008331FE2383310030833198238331003ABC
:10062800031D080022008C1108002000B1000430CE
:100638003106031D212B8030222B4030B0003008BA
:10064800B20032080C38B0003008AD0001308331F8
:10065800A6230800003400344434043489340334B5
:1006680000340034003400340034003400340034E2
:1006780000340034003400343F3404342000911036
:100688000130C2070030C33D003043026430031913
:100698004202031C08008331E9232000C201C30180
:1006A80008007C3020009B009A01911021009114D1
:1006B80057302000A0000430A100843127242730BF
:1006C80020009C0008002700161C6D2B8331DC23BA
:1006D80083312700961D732B8331CF238331270065
:1006E800961E08008331C22308002000A20022358C
:1006F800A1002108A30020080319872B23084038EC
:10070800A1002108A300230808007E1C8D2B83313B
:10071800F42B20002008240091002000911D912B2B
:1007280091112400110808002000A400A02B843196
:1007380044240800003008002408003A03199B2BC1
:100748009E2B08002000AF002D08AE002E08A9003F
:10075800A0012F088331792383318131C121080019
:10076800F40022000C158C10740884311824F3004E
:100778007308F50022008C1475080800200038085A
:1007880039040319CC2B39088A0038080A00833148
:1007980027009612080020003A083B040319D92BB9
:1007A8003B088A003A080A0083312700961108009E
:1007B80020003C083D040319E62B3D088A003C084C
:1007C8000A00833127001610080020003E083F0465
:1007D800031908003F088A003E080A008331080010
:1007E8007008240091002000911DF72B911124001E
:1007F80011080800013021009D0060309E009B0117
:100808009C01111708002000A2002208A10021085D
:10081800A0008331892308000A3440342734003487
:100828000A34403427340034F2007208F1007108A9
:10083800F0008331F42308007830210099009801F2
:1008480022009601080020002108BF002008BE00F1
:10085800080020002108B9002008B800080020007E
:100868002108BB002008BA00080020002108BD00AC
:100878002008BC0008002000911D08009111080004
:10088800013081316A2108001630210097000800E4
:1008980000308331B42308000934013402342000C5
:0E08A80011130800B43408000800080008000E
:020000040001F9
:04000E00E4FFFFFE0E
:00000001FF
