:0400000080313328F0
:100008007E14803120007F08F2000B1A8B1C102808
:100018008131E72180312E280B1F2E282100931CC7
:100028001C282000931C1C288131442180312E2853
:100038002100911C26282000911C26288231192293
:1000480080312E282100111F2E282000111F2E2854
:1000580082312A2272082000FF007E1009008031B8
:10006800352882312D22FA00F801F901A001A101F9
:10007800A201A301A401A501A601A7017E102000E9
:100088008031B72879080F39F70077082000AC00CD
:100098002C1D7C282C1865287C2881315B21803117
:1000A8000630F7000730890B5728F70B572881319E
:1000B800712180310630F7000730890B6128F70B72
:1000C800612820000C080F39031D5128F301003066
:1000D800813109218031F301F30A0130813109218D
:1000E8008031F301F30A02308131092180310100A6
:1000F80020002C1D8C280030813186218031200081
:100108000C080F39031908008131BA21803183287E
:100118002C1C9B28013081318621803120000C085D
:100128000F39031908008131BA2180319228AC1D9A
:10013800AA28023081318621803120000C080F392D
:10014800031908008131BA218031A128AC1C0800AC
:1001580020000C080F390319B5288131BA218031E4
:10016800AC28010008008131AB2180318B170B17B7
:1001780081315B2180318130890BC0288131712127
:1001880080318130890BC62881315B2180318130F3
:10019800890BCC288131712180318130890BD2289B
:1001A8008130890BD52821001710000000000000BD
:1001B80000000000210017146400031020008D1DAA
:1001C8000314031CEA2822008D14EC2822008D1049
:1001D80078080319F328F80180314620803120007F
:1001E80026080319D428A6012E3084008230850001
:1001F8000008AD002408A40AAE002D082E02031C36
:10020800D428813171218031D428F6002300951833
:100218000A297608F400F50174089100750892001F
:10022800730893003F30F40074089505200003100C
:100238008B1B03148B132300151555309600AA3019
:100248009600951415112000031C08008B17080050
:10025800803022008C0002308D003F3021008C005D
:10026800FD308D00E43023008D0010308C00240018
:100278008D018C012100951722009D019E01080027
:10028800200093107A08F000F1010130A007003037
:10029800A13D71082102031D532970082002031C87
:1002A80008008131D1212000A001A101080022000D
:1002B8000C131930890B5E29003222008C17193073
:1002C800890B6429003222008C131930890B6A29A2
:1002D80000322000A501A50A080022008C1319305D
:1002E800890B7429003222000C171930890B7A29DE
:1002F800003222000C131930890B802900322000AB
:10030800A5010800F3007308031D8D2981315B21C5
:1003180008007303031D93298131712108000230FD
:100328007306031D08008131FD210800AC30200050
:100338009B009A019110210091142630F30002309D
:10034800F40082310722373020009C0008008131F8
:100358002C21813182310D22813182311E2281315D
:1003680081319A2181318131C62108000310200092
:100378008D1D0314031CC32922008D1408002200BC
:100388008D1008008B10210015172F30F300023054
:10039800F400823113220B160800200022082304DF
:1003A8000319080023088A0022080A00813108007E
:1003B8002000280829040319080029088A002808A9
:1003C8000A008131080020000C08F0007008F900CC
:1003D800F801F80A8B108131F221080020002A0860
:1003E8002B04031908002B088A002A080A00813107
:1003F8000800200025080319042A8131712108000A
:1004080081315B21080074082000A9007308A80046
:10041800080021009901980122009601080074083B
:100428002000AB007308AA00080020009110813159
:10043800DC2108001C302100970008002000A701DB
:10044800A70A08002000A601A60A08002000111328
:0804580008000234B43408006E
:020000040001F9
:04000E00E4FFFFFE0E
:00000001FF
