:020000040000FA
:0400000080312528FE
:100008007E1480318B190B1C0F2822008C11803133
:10001800A720803123280B1F23282100111F1B280C
:100028002000111F1B2881317721803123282100CE
:10003800911C23282000911C23288031BF207E108A
:10004800090080312728FA01FB01FC017E102000FD
:1000580080316C2822008C018D01303021008C0009
:10006800FF308D0023008D0110308C0024008D019D
:100078008C012100951722009D019E012700161072
:100088009611961216131514951595161513141422
:100098009415941614137E30F6000130F700813160
:1000A800662180317D30F6000130F700813156211C
:1000B80080317C30F6000130F700813150218031E9
:1000C8006B30F6000130F700813161218B15080093
:1000D8008031E22080318B170B174930F600013050
:1000E800F70081316121803181310B21803122007B
:1000F8008C110230F9000430F800BA30890B8228DC
:10010800F80B8228F90B822800327C03031D9928FA
:10011800FC010A30F9002230F800A130890B92283E
:10012800F80B9228F90B9228000022008C150B304E
:10013800F9002630F8005E30890BA028F80BA028BB
:10014800F90BA0287B282700161CAD288131232114
:1001580080312700961DB3288031FE20803127008A
:10016800961EB9288031F12080312700161F08001B
:10017800813117210800200091100130FA07003062
:10018800FB3D00307B02643003197A02031C08002F
:1001980081312F21FA01FB0108007C3020009B00EF
:1001A8009A019110210091147A30F6000130F7007D
:1001B80081315C21273020009C00080080312E20EE
:1001C800803181314221803181317021803180310B
:1001D800D1208031813139210800200020082104F4
:1001E8000319FB2821088A0020080A00803127000B
:1001F800961208002000220823040319082923085E
:100208008A0022080A008131270096110800700828
:1002180071040319142971088A0070080A008131D1
:1002280027001613080070087104031920297108A3
:100238008A0070080A008131270016130800720826
:10024800730403192C2973088A0072080A00813183
:1002580027001610080074087504031908007508AB
:100268008A0074080A0081310800013021009D00CD
:1002780060309E009B019C01111708007830210016
:10028800990098012200960108007E1C4D298131B1
:100298007429FC01FC0A080077082000A1007608F0
:1002A800A000080077082000A3007608A200080034
:1002B8007708F5007608F40008007708F10076085A
:1002C800F00008007708F3007608F20008007E1CAA
:1002D800080081317B2908001630210097000800AA
:1002E800FC01FC0A0800200011130800080008009F
:0602F800080008000800E8
:020000040001F9
:04000E00E4FFFFFE0E
:00000001FF
